:100000000C9463000C948B000C948B000C948B006C
:100010000C948B000C948B000C948B000C948B0034
:100020000C948B000C948B000C948B000C948B0024
:100030000C948B000C948B000C948B000C948B0014
:100040000C941A030C948B000C9494040C94E2040A
:100050000C948B000C948B000C948B000C948B00F4
:100060000C948B000C948B000000000024002700EF
:100070002A0000000000250028002B0000000000DE
:1000800023002600290004040404040404040202DA
:100090000202020203030303030301020408102007
:1000A0004080010204081020010204081020000012
:1000B0000007000201000003040600000000000029
:1000C00000008D004E0611241FBECFEFD8E0DEBF2A
:1000D000CDBF11E0A0E0B1E0ECE4FEE002C005908D
:1000E0000D92A835B107D9F712E0A8E5B1E001C03B
:1000F0001D92A032B107E1F710E0C6ECD0E004C0D9
:100100002297FE010E942007C23CD107C9F70E9436
:10011000A4060C9424070C940000CF92EF920F9346
:1001200088E591E06CE04BE025E004E053E0E52E4B
:1001300032E0C32E0E94E1020F91EF90CF9008951C
:1001400088E591E060E142E020E00E942B028EEF22
:1001500091E040E855E260E070E00E941D050895DE
:100160008EEF91E00E94D5058735A1F488E591E0F6
:100170000E94230288E591E060E040E00E94F401E3
:1001800088E591E060E071E00E94F9068EEF91E071
:1001900067E557C08A35A1F488E591E00E94230203
:1001A00088E591E060E040E00E94F40188E591E09C
:1001B0006EE071E00E94F9068EEF91E06AE541C0C1
:1001C0008835A1F488E591E00E94230288E591E05A
:1001D00060E040E00E94F40188E591E06CE171E0AC
:1001E0000E94F9068EEF91E068E52BC08935A1F4F5
:1001F00088E591E00E94230288E591E060E040E01C
:100200000E94F40188E591E067E271E00E94F9063E
:100210008EEF91E069E515C08534A9F488E591E099
:100220000E94230288E591E060E040E00E94F40132
:1002300088E591E063E371E00E94F9068EEF91E0BA
:1002400065E40E940E066AE070E080E090E00E94A3
:10025000620308950F931F938C01FC01868160E077
:100260000E943F0481E090E00E94BB03F801868178
:1002700061E00E943F0481E090E00E94BB03F8012E
:10028000868160E00E943F0484E690E00E94BB0308
:100290001F910F910895CF92DF92EF92FF920F93EB
:1002A0001F93CF93DF93D82EC92E282F392FC90142
:1002B0008C01C0E0D0E0E62EFF24F801878161E0E8
:1002C0000E940004B7010C2E02C0759567950A9430
:1002D000E2F76170F80187810E943F0421960F5F69
:1002E0001F4FC830D10549F78D2D9C2D0E942A0142
:1002F000DF91CF911F910F91FF90EF90DF90CF9002
:100300000895CF92DF92EF92FF920F931F93CF93B6
:10031000DF93D82EC92E282F392FC9018C01C0E0B8
:10032000D0E0E62EFF24F801878161E00E940004FE
:10033000B7010C2E02C0759567950A94E2F76170BB
:10034000F80187810E943F0421960F5F1F4FC43040
:10035000D10549F78D2D9C2D0E942A01DF91CF9167
:100360001F910F91FF90EF90DF90CF9008951F9312
:10037000CF93DF93EC01162F8C81642F0E943F04F2
:100380008D818F3F19F060E00E943F048F8584FFCC
:1003900005C0CE01612F0E944B010EC0612F70E09D
:1003A00084E0759567958A95E1F7CE010E948101F9
:1003B000CE01612F0E948101DF91CF911F9108959D
:1003C00041E00E94B70181E090E0089540E00E9482
:1003D000B7010895FC016089862F8460808B6C6072
:1003E000CF010E94E6010895DF93CF93CDB7DEB72A
:1003F00028970FB6F894DEBF0FBECDBF9C01FE015B
:100400003196A0E4B1E088E00D9001928150E1F7CF
:10041000F9018389481710F0482F4150E42FF0E08C
:10042000EE0FFF1FEC0FFD1F8181680F6068C9018F
:100430000E94E60128960FB6F894DEBF0FBECDBF2E
:10044000CF91DF91089561E00E94E60180ED97E091
:100450000E94BB030895CF93DF93EC01423018F064
:100460008F8588608F874B8B1C8A222329F041302F
:1004700019F48F8584608F8780E593EC0E94BB031D
:100480008C8160E00E943F048E8160E00E943F0406
:100490008D818F3F19F060E00E943F046F8564FDFD
:1004A0001DC0CE0163E00E94810184E991E10E94B8
:1004B000BB03CE0163E00E94810184E991E10E94C7
:1004C000BB03CE0163E00E94810186E990E00E94B7
:1004D000BB03CE0162E00E94810116C06062CE01C2
:1004E0000E94E60184E991E10E94BB036F8560628E
:1004F000CE010E94E60186E990E00E94BB036F8571
:100500006062CE010E94E6016F856062CE010E94AA
:10051000E60184E0888BCE010E94EA01CE010E94B0
:10052000230282E0898BCE0166E00E94E601DF9122
:10053000CF9108956F927F928F92AF92CF92EF9268
:100540000F931F93DF93CF93CDB7DEB73C01162FE8
:10055000842FF301448325830683E782C086A18626
:1005600082869D8593879E8594879F8595879889A8
:10057000968761E00E940004F30185818F3F19F0A6
:1005800061E00E940004F301868161E00E940004A2
:10059000112319F0F301178603C080E1F301878767
:1005A000C30160E141E020E00E942B02CF91DF9186
:1005B0001F910F91EF90CF90AF908F907F906F90A1
:1005C00008958F92AF92CF92EF920F931F93CF9394
:1005D000DF93DC01362F542F722F102FAE2C8C2C72
:1005E00013961C921E9212978CE391E011969C93A5
:1005F0008E9300D000D0EDB7FEB73196CDB7DEB701
:100600001982118212821382CD0161E0432F2FEFF4
:10061000052FE72EC12E0E949A020F900F900F9087
:100620000F90DF91CF911F910F91EF90CF90AF90EE
:100630008F9008951F920F920FB60F9211242F934F
:100640003F938F939F93AF93BF938091710190914C
:100650007201A0917301B0917401309175010196FE
:10066000A11DB11D232F2D5F2D3720F02D57019691
:10067000A11DB11D209375018093710190937201AA
:10068000A0937301B093740180916D0190916E01FC
:10069000A0916F01B09170010196A11DB11D8093D1
:1006A0006D0190936E01A0936F01B0937001BF91A3
:1006B000AF919F918F913F912F910F900FBE0F900F
:1006C0001F9018959B01AC017FB7F89480916D0144
:1006D00090916E01A0916F01B091700166B5A89BD9
:1006E00005C06F3F19F00196A11DB11D7FBFBA2F44
:1006F000A92F982F8827860F911DA11DB11D62E09B
:10070000880F991FAA1FBB1F6A95D1F7BC012DC086
:10071000FFB7F89480916D0190916E01A0916F01E7
:10072000B0917001E6B5A89B05C0EF3F19F00196A6
:10073000A11DB11DFFBFBA2FA92F982F88278E0F9B
:10074000911DA11DB11DE2E0880F991FAA1FBB1FBB
:10075000EA95D1F7861B970B885E9340C8F221502B
:1007600030404040504068517C4F211531054105D3
:10077000510571F60895019739F0880F991F880F78
:10078000991F02970197F1F70895789484B58260D4
:1007900084BD84B5816084BD85B5826085BD85B525
:1007A000816085BDEEE6F0E0808181608083E1E8D4
:1007B000F0E010828081826080838081816080830C
:1007C000E0E8F0E0808181608083E1EBF0E080810F
:1007D00084608083E0EBF0E0808181608083EAE7E1
:1007E000F0E080818460808380818260808380816A
:1007F000816080838081806880831092C100089529
:10080000CF93DF93482F50E0CA0186569F4FFC01DB
:1008100034914A575F4FFA018491882369F190E03F
:10082000880F991FFC01E859FF4FA591B491FC0175
:10083000EE58FF4FC591D491662351F42FB7F89429
:100840008C91932F909589238C93888189230BC059
:10085000623061F42FB7F8948C91932F909589238F
:100860008C938881832B88832FBF06C09FB7F89411
:100870008C91832B8C939FBFDF91CF910895482F4C
:1008800050E0CA0182559F4FFC012491CA0186564F
:100890009F4FFC0194914A575F4FFA0134913323E3
:1008A00009F440C0222351F1233071F0243028F4A0
:1008B0002130A1F0223011F514C02630B1F02730DC
:1008C000C1F02430D9F404C0809180008F7703C038
:1008D000809180008F7D8093800010C084B58F77D9
:1008E00002C084B58F7D84BD09C08091B0008F7730
:1008F00003C08091B0008F7D8093B000E32FF0E0C3
:10090000EE0FFF1FEE58FF4FA591B4912FB7F8944B
:10091000662321F48C919095892302C08C91892BB8
:100920008C932FBF089508951F920F920FB60F92C8
:1009300011242F933F934F938F939F93EF93FF93A4
:100940008091C00082FD1DC04091C6002091B6017B
:100950003091B7012F5F3F4F2F7330708091B801F6
:100960009091B9012817390771F0E091B601F09123
:10097000B701EA58FE4F40833093B7012093B60188
:1009800002C08091C600FF91EF919F918F914F918E
:100990003F912F910F900FBE0F901F901895E091EF
:1009A0000A02F0910B02E05CFF4F8191919120814E
:1009B0003181821B930B8F739070892B11F00E94F1
:1009C000930408951F920F920FB60F9211242F9344
:1009D0003F938F939F93EF93FF932091FA01309170
:1009E000FB018091FC019091FD012817390731F43A
:1009F0008091C1008F7D8093C10014C0E091FC0103
:100A0000F091FD01E654FE4F20818091FC01909110
:100A1000FD0101968F7390709093FD018093FC010E
:100A20002093C600FF91EF919F918F913F912F915D
:100A30000F900FBE0F901F901895AF92BF92DF924C
:100A4000EF92FF920F931F93CF93DF93EC017A0104
:100A50008B01DD24403081EE580780E0680780E09C
:100A6000780711F0DD24D39491E0A92EB12CEC8904
:100A7000FD89DD2069F0C50108A002C0880F991F1B
:100A80000A94E2F7808360E079E08DE390E005C0AE
:100A9000108260E874E88EE190E0A80197010E945E
:100AA000FC062150304040405040569547953795C0
:100AB000279580E12030380720F0DD2011F0DD247B
:100AC000D6CFE889F9893083EA89FB89208319A286
:100AD000EE89FF89408121E030E0C9010C8C02C021
:100AE000880F991F0A94E2F7482B4083EE89FF890B
:100AF0004081C9010D8C02C0880F991F0A94E2F74A
:100B0000482B4083EE89FF894081C9010E8C02C0C9
:100B1000880F991F0A94E2F7482B4083EE89FF89DA
:100B200080810F8C02C0220F331F0A94E2F72095B8
:100B300028232083DF91CF911F910F91FF90EF9099
:100B4000DF90BF90AF900895DC011C96ED91FC9171
:100B50001D97E05CFF4F2191319180819181281B8D
:100B6000390B2F733070C9010895DC011C96ED918B
:100B7000FC911D97E05CFF4F20813181E054F040F3
:100B8000DF01AE5BBF4F8D919C91119728173907FC
:100B900019F42FEF3FEF07C08D919C91E80FF91FDB
:100BA0008081282F30E0C9010895DC011C96ED9169
:100BB000FC911D97E05CFF4F20813181E054F040B3
:100BC000DF01AE5BBF4F8D919C91119728173907BC
:100BD00019F42FEF3FEF10C08D919C911197E80F02
:100BE000F91F20818D919C91119701968F739070C0
:100BF00011969C938E9330E0C9010895DC01919683
:100C00008C919197882339F05496ED91FC915597EA
:100C1000808186FFF9CF91961C920895CF93DF9340
:100C2000EC01EE85FF85E05CFF4F20813181E054CF
:100C3000F0402F5F3F4F2F733070DF01AE5BBF4F2F
:100C40008D919C91119728173907D1F3E05CFF4FE4
:100C500080819181E054F040E80FF91F6083EE85B8
:100C6000FF85E05CFF4F31832083EE89FF8920817F
:100C700081E090E00F8C02C0880F991F0A94E2F780
:100C8000282B208381E089A3EC89FD898081806401
:100C9000808381E090E0DF91CF910895109201026E
:100CA0001092000288EE93E0A0E0B0E08093020290
:100CB00090930302A0930402B09305028CE491E0A8
:100CC0009093FF018093FE0186E791E090930B02E1
:100CD00080930A028AEB91E090930D0280930C02BC
:100CE00085EC90E090930F0280930E0284EC90E0EC
:100CF000909311028093100280EC90E09093130285
:100D00008093120281EC90E090931502809314027C
:100D100082EC90E0909317028093160286EC90E0AC
:100D2000909319028093180284E080931A0283E062
:100D300080931B0287E080931C0285E080931D0254
:100D400081E080931E020895CF93DF930E94C50334
:100D50000E94A000CFECD4E00E94B0002097E1F305
:100D60000E94CF04F9CFCF92DF92EF92FF920F93C0
:100D70001F93CF93DF937C016B018A01C0E0D0E029
:100D80000FC0D6016D916D01D701ED91FC910190DD
:100D9000F081E02DC7010995C80FD91F01501040FF
:100DA0000115110571F7CE01DF91CF911F910F91C0
:100DB000FF90EF90DF90CF900895CF93DF93EC01F9
:100DC0006115710519F420E030E00FC0DB010D90D2
:100DD0000020E9F71197A61BB70BE881F981028083
:100DE000F381E02DAD0109959C01C901DF91CF91FF
:100DF00008950E94DD060895A1E21A2EAA1BBB1BCE
:100E0000FD010DC0AA1FBB1FEE1FFF1FA217B307D6
:100E1000E407F50720F0A21BB30BE40BF50B661FEC
:100E2000771F881F991F1A9469F7609570958095B0
:100E300090959B01AC01BD01CF010895EE0FFF1FFE
:0C0E40000590F491E02D0994F894FFCF88
:100E4C004D6F746F7220466F7277617264004D6FD4
:100E5C00746F722052657665727365004D6F746F96
:100E6C0072204C656674004D6F746F722052696706
:100E7C0068740053544F500000000000E001B306AA
:100E8C000000400014005400000000000E06B306E1
:080E9C00A405D505B505FE050E
:00000001FF
